{
  "contractName": "PrescriptionContract",
  "abi": [
    {
      "anonymous": false,
      "inputs": [
        {
          "indexed": true,
          "internalType": "address",
          "name": "doctor",
          "type": "address"
        },
        {
          "indexed": true,
          "internalType": "address",
          "name": "patient",
          "type": "address"
        },
        {
          "indexed": false,
          "internalType": "uint256",
          "name": "prescriptionId",
          "type": "uint256"
        },
        {
          "indexed": false,
          "internalType": "string",
          "name": "medicine",
          "type": "string"
        },
        {
          "indexed": false,
          "internalType": "string",
          "name": "dosage",
          "type": "string"
        },
        {
          "indexed": false,
          "internalType": "string",
          "name": "frequency",
          "type": "string"
        },
        {
          "indexed": false,
          "internalType": "uint256",
          "name": "duration",
          "type": "uint256"
        },
        {
          "indexed": false,
          "internalType": "string[]",
          "name": "reminderTimes",
          "type": "string[]"
        }
      ],
      "name": "PrescriptionAdded",
      "type": "event"
    },
    {
      "anonymous": false,
      "inputs": [
        {
          "indexed": true,
          "internalType": "address",
          "name": "doctor",
          "type": "address"
        },
        {
          "indexed": true,
          "internalType": "address",
          "name": "patient",
          "type": "address"
        },
        {
          "indexed": false,
          "internalType": "uint256",
          "name": "prescriptionId",
          "type": "uint256"
        },
        {
          "indexed": false,
          "internalType": "string",
          "name": "medicine",
          "type": "string"
        },
        {
          "indexed": false,
          "internalType": "string",
          "name": "dosage",
          "type": "string"
        },
        {
          "indexed": false,
          "internalType": "string",
          "name": "frequency",
          "type": "string"
        },
        {
          "indexed": false,
          "internalType": "uint256",
          "name": "duration",
          "type": "uint256"
        },
        {
          "indexed": false,
          "internalType": "string[]",
          "name": "reminderTimes",
          "type": "string[]"
        }
      ],
      "name": "PrescriptionModified",
      "type": "event"
    },
    {
      "anonymous": false,
      "inputs": [
        {
          "indexed": true,
          "internalType": "address",
          "name": "patient",
          "type": "address"
        },
        {
          "indexed": true,
          "internalType": "uint256",
          "name": "prescriptionId",
          "type": "uint256"
        },
        {
          "indexed": true,
          "internalType": "address",
          "name": "doctor",
          "type": "address"
        },
        {
          "indexed": false,
          "internalType": "bool",
          "name": "isActive",
          "type": "bool"
        },
        {
          "indexed": false,
          "internalType": "uint256",
          "name": "timestamp",
          "type": "uint256"
        }
      ],
      "name": "PrescriptionRemoved",
      "type": "event"
    },
    {
      "anonymous": false,
      "inputs": [
        {
          "indexed": true,
          "internalType": "uint256",
          "name": "prescriptionId",
          "type": "uint256"
        },
        {
          "indexed": false,
          "internalType": "uint256",
          "name": "newStatus",
          "type": "uint256"
        }
      ],
      "name": "PrescriptionStatusUpdated",
      "type": "event"
    },
    {
      "anonymous": false,
      "inputs": [
        {
          "indexed": true,
          "internalType": "address",
          "name": "userAddress",
          "type": "address"
        },
        {
          "indexed": false,
          "internalType": "enum PrescriptionContract.Role",
          "name": "role",
          "type": "uint8"
        }
      ],
      "name": "UserRegistered",
      "type": "event"
    },
    {
      "inputs": [
        {
          "internalType": "bytes32",
          "name": "_passwordHash",
          "type": "bytes32"
        },
        {
          "internalType": "string",
          "name": "_email",
          "type": "string"
        },
        {
          "internalType": "enum PrescriptionContract.Role",
          "name": "_role",
          "type": "uint8"
        }
      ],
      "name": "registerUser",
      "outputs": [],
      "stateMutability": "nonpayable",
      "type": "function"
    },
    {
      "inputs": [
        {
          "internalType": "address",
          "name": "_user",
          "type": "address"
        }
      ],
      "name": "getUserEmail",
      "outputs": [
        {
          "internalType": "string",
          "name": "",
          "type": "string"
        }
      ],
      "stateMutability": "view",
      "type": "function",
      "constant": true
    },
    {
      "inputs": [
        {
          "internalType": "bytes32",
          "name": "_passwordHash",
          "type": "bytes32"
        },
        {
          "internalType": "string",
          "name": "_email",
          "type": "string"
        }
      ],
      "name": "verifyUser",
      "outputs": [
        {
          "internalType": "bool",
          "name": "",
          "type": "bool"
        }
      ],
      "stateMutability": "view",
      "type": "function",
      "constant": true
    },
    {
      "inputs": [
        {
          "internalType": "address",
          "name": "_user",
          "type": "address"
        }
      ],
      "name": "isUserRegistered",
      "outputs": [
        {
          "internalType": "bool",
          "name": "",
          "type": "bool"
        }
      ],
      "stateMutability": "view",
      "type": "function",
      "constant": true
    },
    {
      "inputs": [
        {
          "internalType": "address",
          "name": "_user",
          "type": "address"
        }
      ],
      "name": "isDoctor",
      "outputs": [
        {
          "internalType": "bool",
          "name": "",
          "type": "bool"
        }
      ],
      "stateMutability": "view",
      "type": "function",
      "constant": true
    },
    {
      "inputs": [
        {
          "internalType": "address",
          "name": "_patient",
          "type": "address"
        },
        {
          "internalType": "string",
          "name": "_medicine",
          "type": "string"
        },
        {
          "internalType": "string",
          "name": "_dosage",
          "type": "string"
        },
        {
          "internalType": "string",
          "name": "_frequency",
          "type": "string"
        },
        {
          "internalType": "uint256",
          "name": "_duration",
          "type": "uint256"
        },
        {
          "internalType": "string[]",
          "name": "_reminderTimes",
          "type": "string[]"
        }
      ],
      "name": "addPrescription",
      "outputs": [],
      "stateMutability": "nonpayable",
      "type": "function"
    },
    {
      "inputs": [
        {
          "internalType": "uint256",
          "name": "_id",
          "type": "uint256"
        },
        {
          "internalType": "uint256",
          "name": "_status",
          "type": "uint256"
        }
      ],
      "name": "updatePrescriptionStatus",
      "outputs": [],
      "stateMutability": "nonpayable",
      "type": "function"
    },
    {
      "inputs": [
        {
          "internalType": "uint256",
          "name": "_prescriptionId",
          "type": "uint256"
        },
        {
          "internalType": "string",
          "name": "_medicine",
          "type": "string"
        },
        {
          "internalType": "string",
          "name": "_dosage",
          "type": "string"
        },
        {
          "internalType": "string",
          "name": "_frequency",
          "type": "string"
        },
        {
          "internalType": "uint256",
          "name": "_duration",
          "type": "uint256"
        },
        {
          "internalType": "string[]",
          "name": "_reminderTimes",
          "type": "string[]"
        }
      ],
      "name": "modifyPrescription",
      "outputs": [],
      "stateMutability": "nonpayable",
      "type": "function"
    },
    {
      "inputs": [
        {
          "internalType": "uint256",
          "name": "_prescriptionId",
          "type": "uint256"
        }
      ],
      "name": "removePrescription",
      "outputs": [],
      "stateMutability": "nonpayable",
      "type": "function"
    },
    {
      "inputs": [
        {
          "internalType": "address",
          "name": "_patient",
          "type": "address"
        }
      ],
      "name": "getPatientPrescriptions",
      "outputs": [
        {
          "internalType": "string[]",
          "name": "",
          "type": "string[]"
        },
        {
          "internalType": "string[]",
          "name": "",
          "type": "string[]"
        },
        {
          "internalType": "string[]",
          "name": "",
          "type": "string[]"
        },
        {
          "internalType": "uint256[]",
          "name": "",
          "type": "uint256[]"
        },
        {
          "internalType": "enum PrescriptionContract.PrescriptionStatus[]",
          "name": "",
          "type": "uint8[]"
        },
        {
          "internalType": "string[][]",
          "name": "",
          "type": "string[][]"
        },
        {
          "internalType": "uint256[]",
          "name": "",
          "type": "uint256[]"
        }
      ],
      "stateMutability": "view",
      "type": "function",
      "constant": true
    },
    {
      "inputs": [
        {
          "internalType": "address",
          "name": "_doctor",
          "type": "address"
        }
      ],
      "name": "getDoctorPrescriptions",
      "outputs": [
        {
          "internalType": "uint256[]",
          "name": "ids",
          "type": "uint256[]"
        },
        {
          "internalType": "string[]",
          "name": "medicines",
          "type": "string[]"
        },
        {
          "internalType": "string[]",
          "name": "dosages",
          "type": "string[]"
        },
        {
          "internalType": "string[]",
          "name": "frequencies",
          "type": "string[]"
        },
        {
          "internalType": "uint256[]",
          "name": "durations",
          "type": "uint256[]"
        },
        {
          "internalType": "uint8[]",
          "name": "statuses",
          "type": "uint8[]"
        },
        {
          "internalType": "string[][]",
          "name": "allReminderTimes",
          "type": "string[][]"
        },
        {
          "internalType": "address[]",
          "name": "patients",
          "type": "address[]"
        },
        {
          "internalType": "bool[]",
          "name": "isActiveFlags",
          "type": "bool[]"
        }
      ],
      "stateMutability": "view",
      "type": "function",
      "constant": true
    },
    {
      "inputs": [
        {
          "internalType": "uint256",
          "name": "_prescriptionId",
          "type": "uint256"
        }
      ],
      "name": "getPrescriptionDetails",
      "outputs": [
        {
          "internalType": "string",
          "name": "",
          "type": "string"
        },
        {
          "internalType": "string",
          "name": "",
          "type": "string"
        },
        {
          "internalType": "string",
          "name": "",
          "type": "string"
        },
        {
          "internalType": "uint256",
          "name": "",
          "type": "uint256"
        },
        {
          "internalType": "enum PrescriptionContract.PrescriptionStatus",
          "name": "",
          "type": "uint8"
        },
        {
          "internalType": "string[]",
          "name": "",
          "type": "string[]"
        },
        {
          "internalType": "address",
          "name": "",
          "type": "address"
        },
        {
          "internalType": "address",
          "name": "",
          "type": "address"
        }
      ],
      "stateMutability": "view",
      "type": "function",
      "constant": true
    },
    {
      "inputs": [
        {
          "internalType": "address",
          "name": "_patient",
          "type": "address"
        }
      ],
      "name": "getPatientPrescriptionCount",
      "outputs": [
        {
          "internalType": "uint256",
          "name": "",
          "type": "uint256"
        }
      ],
      "stateMutability": "view",
      "type": "function",
      "constant": true
    },
    {
      "inputs": [
        {
          "internalType": "address",
          "name": "_doctor",
          "type": "address"
        }
      ],
      "name": "getDoctorPrescriptionCount",
      "outputs": [
        {
          "internalType": "uint256",
          "name": "",
          "type": "uint256"
        }
      ],
      "stateMutability": "view",
      "type": "function",
      "constant": true
    }
  ],
  "bytecode": "0x60808060405234610016576124c3908161001b8239f35b5f80fdfe6080806040526004361015610012575f80fd5b5f3560e01c90816303be92ed14611d9f57508063163f752214611d5f5780631cc830df14611c565780634ffe118c14611c1e57806350f8874d146116355780635e189509146115365780638a462e1a1461126a5780639480e948146111fc578063985f387d14611123578063996440c6146110c0578063a412027f14610fb2578063a4c54e7714610bc4578063a65d1a8c146109655763c741a758146100b6575f80fd5b346109615760c0366003190112610961576100cf611dd3565b6024356001600160401b038111610961576100ee903690600401611e25565b6044356001600160401b0381116109615761010d903690600401611e25565b916064356001600160401b0381116109615761012d903690600401611e25565b9060a4356001600160401b0381116109615761014d903690600401611e91565b335f526003602052610171600260405f20015460ff81169081610947575b50612180565b6001600160a01b0382165f9081526003602052604090206002015460ff8116908161092f575b50156108f8578351156108b3576084351561086e57805115610829575f54604051806101208101106001600160401b03610120830111176105b457610120810160405285815286602082015284604082015260843560608201525f60808201528260a082015260018060a01b03841660c08201523360e08201526001610100820152600160401b8210156105b457600182015f55610234826121d8565b6108165781518051906001600160401b0382116105b457610255835461204f565b601f81116107e6575b50602090601f831160011461077e5761028e92915f9183610502575b50508160011b915f199060031b1c19161790565b81555b60208201518051906001600160401b0382116105b4576102b4600184015461204f565b601f811161074b575b50602090601f83116001146106dd576102ec92915f91836105025750508160011b915f199060031b1c19161790565b60018201555b60408201518051906001600160401b0382116105b457610315600284015461204f565b601f81116106aa575b50602090601f831160011461063c5761034d92915f91836105025750508160011b915f199060031b1c19161790565b60028201555b60608201516003820155610377608083015161036e81611f56565b60048301612224565b60a0820151805190600160401b82116105b45760058301548260058501558083106105c8575b5060200190600583015f5260205f20915f905b828210610496578b8b7f66fd98e755148aa0029b96b24e0d46bd80df860485aa4fc6764ff87a2a1d508d8c8c6104918d8d8d60078e6006810160018060a01b0360c0850151166bffffffffffffffffffffffff60a01b825416179055019060018060a01b0360e08201511682549161010060ff60a01b910151151560a01b16916affffffffffffffffffffff60a81b161717905560018060a01b0384165f5260016020526104618160405f20612265565b335f5260026020526104768160405f20612265565b60405194859460018060a01b03169833986084359387612299565b0390a3005b80518051906001600160401b0382116105b4576104b3865461204f565b601f8111610579575b50602090601f831160011461050d57926104f3836001959460209487965f926105025750508160011b915f199060031b1c19161790565b87555b019401910190926103b0565b015190505f8061027a565b90865f5260205f20915f5b601f1985168110610561575083602093600196938796938794601f19811610610549575b505050811b0187556104f6565b01515f1960f88460031b161c191690555f808061053c565b91926020600181928685015181550194019201610518565b6105a490875f5260205f20601f850160051c810191602086106105aa575b601f0160051c0190612087565b5f6104bc565b9091508190610597565b634e487b7160e01b5f52604160045260245ffd5b600584015f5260205f20908382015b81830181106105e757505061039d565b806105f46001925461204f565b80610601575b50016105d7565b601f8111831461061657505f81555b5f6105fa565b5f90828252610633601f60208420920160051c8201858301612087565b81835555610610565b9190600284015f5260205f20905f935b601f198416851061068f576001945083601f19811610610677575b505050811b016002820155610353565b01515f1960f88460031b161c191690555f8080610667565b8181015183556020948501946001909301929091019061064c565b6106d790600285015f5260205f20601f850160051c810191602086106105aa57601f0160051c0190612087565b5f61031e565b9190600184015f5260205f20905f935b601f1984168510610730576001945083601f19811610610718575b505050811b0160018201556102f2565b01515f1960f88460031b161c191690555f8080610708565b818101518355602094850194600190930192909101906106ed565b61077890600185015f5260205f20601f850160051c810191602086106105aa57601f0160051c0190612087565b5f6102bd565b9190835f5260205f20905f935b601f19841685106107cb576001945083601f198116106107b3575b505050811b018155610291565b01515f1960f88460031b161c191690555f80806107a6565b8181015183556020948501946001909301929091019061078b565b61081090845f5260205f20601f850160051c810191602086106105aa57601f0160051c0190612087565b5f61025e565b634e487b7160e01b5f525f60045260245ffd5b60405162461bcd60e51b815260206004820152601e60248201527f4174206c65617374206f6e652072656d696e64657220726571756972656400006044820152606490fd5b60405162461bcd60e51b815260206004820152601960248201527f4475726174696f6e206d75737420626520706f736974697665000000000000006044820152606490fd5b60405162461bcd60e51b815260206004820152601860248201527f4d65646963696e652063616e6e6f7420626520656d70747900000000000000006044820152606490fd5b60405162461bcd60e51b815260206004820152600f60248201526e125b9d985b1a59081c185d1a595b9d608a1b6044820152606490fd5b60ff915060081c1661094081611f56565b155f610197565b6001915060081c60ff1661095a81611f56565b145f61016b565b5f80fd5b34610961576060366003190112610961576001600160401b0360243581811161096157610996903690600401611e25565b9060443590600282101561096157335f526020906003825260ff600260405f20015416610b7f57604051906109ca82611de9565b6004358252828201948552604082019160019586845260608201926109ee87611f56565b868452335f526003865260405f209251835587830191519788519182116105b457610a19835461204f565b601f8111610b51575b508690601f8311600114610acb5750816002949392610a78927f8e18574f8a7333e6a87112742a55853a643e2f0550f4e1a3a2c3f1bb2994441d9a9b5f92610ac05750508160011b915f199060031b1c19161790565b90555b01915115159060ff61ff0084549251610a9381611f56565b610a9c81611f56565b60081b1692169061ffff19161717905560405192610ab981611f56565b83523392a2005b015190508b8061027a565b9190601f19821699845f52885f209a5f5b818110610b3c5750917f8e18574f8a7333e6a87112742a55853a643e2f0550f4e1a3a2c3f1bb2994441d9a9b91846002989796959410610b24575b505050811b019055610a7b565b01515f1960f88460031b161c191690558a8080610b17565b838301518d559b85019b928a01928a01610adc565b610b7990845f52885f20601f850160051c8101918a86106105aa57601f0160051c0190612087565b89610a22565b60405162461bcd60e51b815260048101839052601760248201527f5573657220616c726561647920726567697374657265640000000000000000006044820152606490fd5b34610961576020366003190112610961576001600160a01b03610be5611dd3565b165f52600260205260405f20604051808260208294549384815201905f5260205f20925f5b818110610f99575050610c1f92500382611e04565b5f905f5b8151811015610c725760ff6007610c43610c3d8486612425565b516121d8565b50015460a01c16610c5d575b610c5890612388565b610c23565b91610c6a610c5891612388565b929050610c4f565b50610c7c826123f3565b91610c86816123aa565b90610c90816123aa565b90610c9a816123aa565b94610ca4826123f3565b610cad83611e7a565b92610cbb6040519485611e04565b808452610cc781611e7a565b601f19908101366020870137610cdc826123aa565b92610ce683611e7a565b91610cf46040519384611e04565b83835280610d0185611e7a565b01366020850137610d2a610d1485611e7a565b94610d226040519687611e04565b808652611e7a565b013660208501375f965f5b8a51811015610e5f57610d48818c612425565b51610d52816121d8565b508d60ff908d82600785015460a01c169485610d7d575b505050505050610d7890612388565b610d35565b8e610d78979f9593948f938f610e539997610dd1858e610dc482610dde97610db48e610e049d610dae85809c612425565b526120df565b610dbe8383612425565b52612425565b50610db460018c016120df565b50610db4600289016120df565b506003850154610dee838d612425565b5260048501541692610dff84611f56565b612425565b52610e1160058201612439565b610e1b848c612425565b52610e26838b612425565b50600601546001600160a01b0316610e3e8389612425565b52610e498289612425565b9015159052612388565b98908d808e8d82610d69565b50610e8e94610ec687959493610eb88e610eaa8c968f610e9c906040519d8e9d8e610120908181520190611fc8565b8d810360208f015290611f74565b908b820360408d0152611f74565b9089820360608b0152611f74565b908782036080890152611fc8565b85810360a0870152602080845192838152019301905f5b818110610f7d5750505090610ef99185820360c0870152611ffb565b83810360e0850152602080835192838152019201905f5b818110610f5b57505050828103610100840152602080835192838152019201905f5b818110610f40575050500390f35b82511515845285945060209384019390920191600101610f32565b82516001600160a01b0316845286955060209384019390920191600101610f10565b825160ff16855288975060209485019490920191600101610edd565b8454835260019485019486945060209093019201610c0a565b34610961576040366003190112610961576024356001600160401b03811161096157610fe2903690600401611e25565b335f5260209060038252610fff60ff600260405f2001541661209d565b335f526003825260405f209060405161101781611de9565b8254815260ff600261102b600186016120df565b9486840195865201548181161515604084015260081c1661104b81611f56565b606082015251600435149182611068575b50506040519015158152f35b909150516040516110958482816110888183019687815193849201611f10565b8101038084520182611e04565b519020906040516110b58482816110888183019687815193849201611f10565b51902014828061105c565b34610961576020366003190112610961576001600160a01b036110e1611dd3565b165f5260036020526020600260405f20015460ff81169081611109575b506040519015158152f35b6001915060081c60ff1661111c81611f56565b14826110fe565b34610961576040366003190112610961576004356024356006611145836121d8565b500154336001600160a01b03918216149081156111e3575b50156111af576020816111907f05d9d1d6eb16d14279620843ca94fbf2872538e7ef2b87a37f046d8474f06a7393611f56565b6111a681600461119f876121d8565b5001612224565b604051908152a2005b60405162461bcd60e51b815260206004820152600c60248201526b4e6f6e206175746f7269736560a01b6044820152606490fd5b90506111ee836121d8565b50600701541633148361115d565b34610961576020366003190112610961576001600160a01b0361121d611dd3565b16805f52600360205261123960ff600260405f2001541661209d565b5f526003602052611266611252600160405f20016120df565b604051918291602083526020830190611f31565b0390f35b34610961576020366003190112610961576001600160a01b0361128b611dd3565b16805f52600160205260405f2054905f915f5b8181106114df57506112af836123aa565b926112b9816123aa565b6112c2826123aa565b6112cb836123f3565b906112d584611e7a565b926112e36040519485611e04565b8484526112ef85611e7a565b602085019690601f190136883761130e611308876123aa565b966123f3565b975f905f5b8381106113d857508a60e08b8b8b8b602061136e8d6113608e6113528f6113456040519d8d8f9e8f9081520190611f74565b8c8103888e015290611f74565b908a820360408c0152611f74565b9088820360608a0152611fc8565b91868303608088015251918281520192905f5b8181106113af57505050816113a1918561126695940360a0870152611ffb565b9083820360c0850152611fc8565b91949550919260208060019287516113c681611f56565b81520195019101918695949392611381565b858b8a878a9f98999a898d91885f5260016020526113f98860405f2061223c565b9054600391821b1c9761140b896121d8565b509560ff9485600789015460a01c1661143d575b505050505050505050505061143390612388565b9a9594939a611313565b878e9a96976114339d9f98896114b1916114cd9f9d97996114a4836114c79f9b61149a826114c19f819f82610db49f60059f60018461148685610db494610db461148d996120df565b50016120df565b50610db460028d016120df565b5088015492612425565b5260048501541692612425565b6114ba82611f56565b5201612439565b50612425565b52612388565b92908b8a8f8f818d91818e8e8e61141f565b825f52600160205260ff60076115076114fb8460405f2061223c565b90549060031b1c6121d8565b50015460a01c16611521575b61151c90612388565b61129e565b9261152e61151c91612388565b939050611513565b34610961576020366003190112610961576115e961156160043561155c5f5482106122f0565b6121d8565b5061157661156f825461204f565b151561233c565b600381015460ff6004830154169161162660018060a01b03928360068401541693600784015416926115a7816120df565b956116056115b7600184016120df565b926115f76115d360056115cc600285016120df565b9301612439565b946040519b8c9b8c6101008091528d0190611f31565b908b820360208d0152611f31565b9089820360408b0152611f31565b92606088015261161481611f56565b608087015285820360a0870152611f74565b9160c084015260e08301520390f35b346109615760c0366003190112610961576024356001600160401b03811161096157611665903690600401611e25565b6044356001600160401b03811161096157611684903690600401611e25565b6064356001600160401b038111610961576116a3903690600401611e25565b9160a4356001600160401b038111610961576116c3903690600401611e91565b92335f5260036020526116e7600260405f20015460ff81169081611c045750612180565b6116f55f54600435106122f0565b6117006004356121d8565b5082516001600160401b0381116105b45761171b825461204f565b601f8111611bd4575b506020601f8211600114611b73579080611752925f91611b68575b508160011b915f199060031b1c19161790565b81555b83516001600160401b0381116105b457611772600183015461204f565b601f8111611b35575b506020601f8211600114611acd5790806117a8925f91611ac257508160011b915f199060031b1c19161790565b60018201555b81516001600160401b0381116105b4576117cb600283015461204f565b601f8111611a8f575b506020601f8211600114611a28579080611801925f91611a1d57508160011b915f199060031b1c19161790565b60028201555b60843560038201558451600160401b81116105b45760058201548160058401558082106119a9575b506020860190600583015f5260205f20915f905b8282106118965788887fc9cd59670c5523b59a365ef75c0c417e5f304b82bfb077a10e5e1dc84c4b5d3889896104918a600660018060a01b03910154169560405193849333976084359260043587612299565b80518051906001600160401b0382116105b4576118b3865461204f565b601f8111611979575b50602090601f831160011461190d57926118f3836001959460209487965f926119025750508160011b915f199060031b1c19161790565b87555b01940191019092611843565b015190508f8061027a565b90865f5260205f20915f5b601f1985168110611961575083602093600196938796938794601f19811610611949575b505050811b0187556118f6565b01515f1960f88460031b161c191690558e808061193c565b91926020600181928685015181550194019201611918565b6119a390875f5260205f20601f850160051c810191602086106105aa57601f0160051c0190612087565b8b6118bc565b600583015f5260205f20908282015b81830181106119c857505061182f565b806119d56001925461204f565b806119e2575b50016119b8565b601f811183146119f757505f81555b8a6119db565b5f90828252611a14601f60208420920160051c8201858301612087565b818355556119f1565b90508401518861173f565b601f19821690600284015f5260205f20915f5b818110611a7757509083600194939210611a5f575b5050811b016002820155611807565b8501515f1960f88460031b161c191690558780611a50565b9192602060018192868a015181550194019201611a3b565b611abc90600284015f5260205f20601f840160051c810191602085106105aa57601f0160051c0190612087565b866117d4565b90508601518861173f565b90600183015f5260205f205f925b601f1983168410611b1d576001935082601f19811610611b05575b5050811b0160018201556117ae565b8701515f1960f88460031b161c191690558780611af6565b87810151825560209384019360019092019101611adb565b611b6290600184015f5260205f20601f840160051c810191602085106105aa57601f0160051c0190612087565b8661177b565b90508501518861173f565b601f19821690835f5260205f20915f5b818110611bbc57509083600194939210611ba4575b5050811b018155611755565b8601515f1960f88460031b161c191690558780611b98565b9192602060018192868b015181550194019201611b83565b611bfe90835f5260205f20601f840160051c810191602085106105aa57601f0160051c0190612087565b86611724565b6001915060081c60ff16611c1781611f56565b148661016b565b34610961576020366003190112610961576001600160a01b03611c3f611dd3565b165f526002602052602060405f2054604051908152f35b3461096157602036600319011261096157600435335f526003602052611c8d600260405f20015460ff81169081611d455750612180565b611c995f54821061233c565b611ca2816121d8565b5060078101805460ff8160a01c1615611d015760ff60a01b1916905560060154604080515f81524260208201523393926001600160a01b0316917f58be1c2ab7c8eb1df82f4c3b5d06f680f4bf40a27d3fa0cd6675bb58fe5f851391a4005b606460405162461bcd60e51b815260206004820152602060248201527f507265736372697074696f6e20697320616c726561647920696e6163746976656044820152fd5b6001915060081c60ff16611d5881611f56565b148361016b565b34610961576020366003190112610961576001600160a01b03611d80611dd3565b165f526003602052602060ff600260405f200154166040519015158152f35b34610961576020366003190112610961576020906001600160a01b03611dc3611dd3565b165f526001825260405f20548152f35b600435906001600160a01b038216820361096157565b608081019081106001600160401b038211176105b457604052565b90601f801991011681019081106001600160401b038211176105b457604052565b81601f82011215610961578035906001600160401b0382116105b45760405192611e59601f8401601f191660200185611e04565b8284526020838301011161096157815f926020809301838601378301015290565b6001600160401b0381116105b45760051b60200190565b81601f8201121561096157803591602091611eab84611e7a565b93611eb96040519586611e04565b808552838086019160051b8301019280841161096157848301915b848310611ee45750505050505090565b82356001600160401b038111610961578691611f0584848094890101611e25565b815201920191611ed4565b5f5b838110611f215750505f910152565b8181015183820152602001611f12565b90602091611f4a81518092818552858086019101611f10565b601f01601f1916010190565b60021115611f6057565b634e487b7160e01b5f52602160045260245ffd5b90815180825260208092019182818360051b82019501935f915b848310611f9e5750505050505090565b9091929394958480611fb883856001950387528a51611f31565b9801930193019194939290611f8e565b9081518082526020808093019301915f5b828110611fe7575050505090565b835185529381019392810192600101611fd9565b90815180825260208092019182818360051b82019501935f915b8483106120255750505050505090565b909192939495848061203f83856001950387528a51611f74565b9801930193019194939290612015565b90600182811c9216801561207d575b602083101461206957565b634e487b7160e01b5f52602260045260245ffd5b91607f169161205e565b818110612092575050565b5f8155600101612087565b156120a457565b60405162461bcd60e51b8152602060048201526013602482015272155cd95c881b9bdd081c9959da5cdd195c9959606a1b6044820152606490fd5b9060405191825f82546120f18161204f565b9081845260209460019182811690815f1461215e5750600114612120575b50505061211e92500383611e04565b565b5f90815285812095935091905b81831061214657505061211e93508201015f808061210f565b8554888401850152948501948794509183019161212d565b9250505061211e94925060ff191682840152151560051b8201015f808061210f565b1561218757565b60405162461bcd60e51b8152602060048201526024808201527f4f6e6c7920646f63746f72732063616e20706572666f726d20746869732061636044820152633a34b7b760e11b6064820152608490fd5b905f9182548110156122105782805260031b7f290decd9548b62a8d60345a988386fc84ba6bc95484008f6362f93160ef3e563019190565b634e487b7160e01b83526032600452602483fd5b9061222e81611f56565b60ff80198354169116179055565b8054821015612251575f5260205f2001905f90565b634e487b7160e01b5f52603260045260245ffd5b8054600160401b8110156105b4576122829160018201815561223c565b819291549060031b91821b915f19901b1916179055565b926122cc906122be6122da946122ed999794875260c0602088015260c0870190611f31565b908582036040870152611f31565b908382036060850152611f31565b92608082015260a0818403910152611f74565b90565b156122f757565b60405162461bcd60e51b815260206004820152601760248201527f496e76616c696420707265736372697074696f6e2049440000000000000000006044820152606490fd5b1561234357565b60405162461bcd60e51b815260206004820152601b60248201527f507265736372697074696f6e20646f6573206e6f7420657869737400000000006044820152606490fd5b5f1981146123965760010190565b634e487b7160e01b5f52601160045260245ffd5b906123b482611e7a565b6123c16040519182611e04565b82815280926123d2601f1991611e7a565b01905f5b8281106123e257505050565b8060606020809385010152016123d6565b906123fd82611e7a565b61240a6040519182611e04565b828152809261241b601f1991611e7a565b0190602036910137565b80518210156122515760209160051b010190565b90815461244581611e7a565b926124536040519485611e04565b8184525f90815260208082208186015b848410612471575050505050565b600183819261247f856120df565b81520192019301929061246356fea2646970667358221220ad28628108c9d65b2a51f4e3dea15c37bee5854556d32584d6c832705bd6776b64736f6c63430008150033",
  "immutableReferences": {},
  "source": "// SPDX-License-Identifier: MIT\r\npragma solidity ^0.8.21;\r\n\r\ncontract PrescriptionContract {\r\n    // numrations pour l'tat de la prescription et le rle de l'utilisateur\r\n    enum PrescriptionStatus { NotTaken, Taken }\r\n    enum Role { Patient, Doctor }\r\n    // Structure d'une prescription mdicale\r\n    struct Prescription {\r\n        string medicine;\r\n        string dosage;\r\n        string frequency;\r\n        uint duration;\r\n        PrescriptionStatus status;\r\n        string[] reminderTimes;\r\n        address patient;\r\n        address doctor;\r\n        bool isActive;\r\n    }\r\n    // Structure dun utilisateur du systme (Patient ou Mdecin)\r\n    struct User {\r\n        bytes32 passwordHash;\r\n        string email; \r\n        bool exists;  // Vrifie si l'utilisateur est enregistr\r\n        Role role; // Rle : Patient ou Mdecin\r\n    }\r\n\r\n    // Stockage principal\r\n    Prescription[] private allPrescriptions;   // Toutes les prescriptions enregistres\r\n    mapping(address => uint[]) private patientPrescriptionIndexes;  // Mapping patient -> index des prescriptions\r\n    mapping(address => uint[]) private doctorPrescriptionIndexes;  // Mapping mdecin -> index des prescriptions\r\n    mapping(address => User) private users;  // Mapping utilisateur -> infos utilisateur\r\n\r\n    // vnements\r\n    event PrescriptionAdded(\r\n        address indexed doctor,\r\n        address indexed patient,\r\n        uint prescriptionId,\r\n        string medicine,\r\n        string dosage,\r\n        string frequency,\r\n        uint duration,\r\n        string[] reminderTimes\r\n    );\r\n\r\n    event PrescriptionStatusUpdated (uint indexed prescriptionId, uint newStatus );\r\n\r\n    event PrescriptionModified(\r\n        address indexed doctor,\r\n        address indexed patient,\r\n        uint prescriptionId,\r\n        string medicine,\r\n        string dosage,\r\n        string frequency,\r\n        uint duration,\r\n        string[] reminderTimes\r\n    );\r\n\r\n   event PrescriptionRemoved(\r\n    address indexed patient,\r\n    uint indexed prescriptionId,\r\n    address indexed doctor,\r\n    bool isActive,\r\n    uint256 timestamp\r\n);\r\n\r\n    event UserRegistered(address indexed userAddress, Role role);\r\n\r\n    // Modificateurs\r\n    modifier onlyRegistered() {\r\n        require(users[msg.sender].exists, \"User not registered\");\r\n        _;\r\n    }\r\n\r\n    modifier onlyDoctor() {\r\n        require(users[msg.sender].exists && users[msg.sender].role == Role.Doctor, \"Only doctors can perform this action\");\r\n        _;\r\n    }\r\n\r\n    // Fonctions utilisateur\r\n    function registerUser(bytes32 _passwordHash, string memory _email, Role _role) public {\r\n        require(!users[msg.sender].exists, \"User already registered\");\r\n        users[msg.sender] = User({\r\n            passwordHash: _passwordHash,\r\n            email: _email,\r\n            exists: true,\r\n            role: _role\r\n        });\r\n\r\n        emit UserRegistered(msg.sender, _role);\r\n    }\r\n\r\n    function getUserEmail(address _user) public view returns (string memory) {\r\n        require(users[_user].exists, \"User not registered\");\r\n        return users[_user].email;\r\n    }\r\n\r\n    function verifyUser(bytes32 _passwordHash, string memory _email) public view returns (bool) {\r\n        require(users[msg.sender].exists, \"User not registered\");\r\n        User memory user = users[msg.sender];\r\n        return (user.passwordHash == _passwordHash &&\r\n                keccak256(abi.encodePacked(user.email)) == keccak256(abi.encodePacked(_email)));\r\n    }\r\n\r\n    function isUserRegistered(address _user) public view returns (bool) {\r\n        return users[_user].exists;\r\n    }\r\n\r\n    function isDoctor(address _user) public view returns (bool) {\r\n        return users[_user].exists && users[_user].role == Role.Doctor;\r\n    }\r\n\r\n    // Fonctions de prescription\r\n    function addPrescription(\r\n        address _patient,\r\n        string memory _medicine,\r\n        string memory _dosage,\r\n        string memory _frequency,\r\n        uint _duration,\r\n        string[] memory _reminderTimes\r\n    ) public onlyDoctor {\r\n        require(users[_patient].exists && users[_patient].role == Role.Patient, \"Invalid patient\");\r\n        require(bytes(_medicine).length > 0, \"Medicine cannot be empty\");\r\n        require(_duration > 0, \"Duration must be positive\");\r\n        require(_reminderTimes.length > 0, \"At least one reminder required\");\r\n\r\n        uint newId = allPrescriptions.length;\r\n        allPrescriptions.push(Prescription({\r\n            medicine: _medicine,\r\n            dosage: _dosage,\r\n            frequency: _frequency,\r\n            duration: _duration,\r\n            status: PrescriptionStatus.NotTaken,\r\n            reminderTimes: _reminderTimes,\r\n            patient: _patient,\r\n            doctor: msg.sender,\r\n            isActive: true \r\n        }));\r\n\r\n        patientPrescriptionIndexes[_patient].push(newId);\r\n        doctorPrescriptionIndexes[msg.sender].push(newId);\r\n\r\n        emit PrescriptionAdded(msg.sender, _patient, newId, _medicine, _dosage, _frequency, _duration, _reminderTimes);\r\n    }\r\n\r\n    function updatePrescriptionStatus(uint _id, uint _status) public {\r\n        require(allPrescriptions[_id].patient == msg.sender || \r\n           allPrescriptions[_id].doctor == msg.sender, \"Non autorise\");\r\n    allPrescriptions[_id].status = PrescriptionStatus(_status);\r\n        emit PrescriptionStatusUpdated(_id, _status);\r\n    }\r\n\r\n    function modifyPrescription(\r\n        uint _prescriptionId,\r\n        string memory _medicine,\r\n        string memory _dosage,\r\n        string memory _frequency,\r\n        uint _duration,\r\n        string[] memory _reminderTimes\r\n    ) public onlyDoctor {\r\n        require(_prescriptionId < allPrescriptions.length, \"Invalid prescription ID\");\r\n        Prescription storage prescription = allPrescriptions[_prescriptionId];\r\n        //require(msg.sender == prescription.doctor, \"Only prescribing doctor can modify\");\r\n\r\n        prescription.medicine = _medicine;\r\n        prescription.dosage = _dosage;\r\n        prescription.frequency = _frequency;\r\n        prescription.duration = _duration;\r\n        prescription.reminderTimes = _reminderTimes;\r\n\r\n        emit PrescriptionModified(msg.sender, prescription.patient, _prescriptionId, _medicine, _dosage, _frequency, _duration, _reminderTimes);\r\n    }\r\n\r\n  \r\nfunction removePrescription(\r\n    uint256 _prescriptionId\r\n) public onlyDoctor {\r\n    require(_prescriptionId < allPrescriptions.length, \"Prescription does not exist\");\r\n    \r\n    Prescription storage prescription = allPrescriptions[_prescriptionId];\r\n    \r\n    /*require(\r\n        msg.sender == prescription.doctor,\r\n        \"Only prescribing doctor can remove prescription\"\r\n    );*/\r\n    require(\r\n        prescription.isActive,\r\n        \"Prescription is already inactive\"\r\n    );\r\n\r\n    // Dsactive la prescription\r\n    prescription.isActive = false;\r\n\r\n    // met l'vnement avec toutes les informations pertinentes\r\n    emit PrescriptionRemoved( prescription.patient,\r\n        _prescriptionId,\r\n        msg.sender,\r\n        prescription.isActive,\r\n        block.timestamp\r\n    );\r\n}\r\n\r\n\r\n\r\n    \r\n    // Fonctions de consultation\r\nfunction getPatientPrescriptions(address _patient) public view returns (\r\n        string[] memory,\r\n        string[] memory,\r\n        string[] memory,\r\n        uint[] memory,\r\n        PrescriptionStatus[] memory,\r\n        string[][] memory,\r\n        uint[] memory // Pour renvoyer les IDs dans React\r\n    ) {\r\n        uint total = patientPrescriptionIndexes[_patient].length;\r\n        uint activeCount = 0;\r\n\r\n        for (uint i = 0; i < total; i++) {\r\n            uint index = patientPrescriptionIndexes[_patient][i];\r\n            if (allPrescriptions[index].isActive) {\r\n                activeCount++;\r\n            }\r\n        }\r\n\r\n        string[] memory medicines = new string[](activeCount);\r\n        string[] memory dosages = new string[](activeCount);\r\n        string[] memory frequencies = new string[](activeCount);\r\n        uint[] memory durations = new uint[](activeCount);\r\n        PrescriptionStatus[] memory statuses = new PrescriptionStatus[](activeCount);\r\n        string[][] memory reminders = new string[][](activeCount);\r\n        uint[] memory prescriptionIds = new uint[](activeCount);\r\n\r\n        uint j = 0;\r\n        for (uint i = 0; i < total; i++) {\r\n            uint index = patientPrescriptionIndexes[_patient][i];\r\n            Prescription storage p = allPrescriptions[index];\r\n            if (p.isActive) {\r\n                medicines[j] = p.medicine;\r\n                dosages[j] = p.dosage;\r\n                frequencies[j] = p.frequency;\r\n                durations[j] = p.duration;\r\n                statuses[j] = p.status;\r\n                reminders[j] = p.reminderTimes;\r\n                prescriptionIds[j] = index;\r\n                j++;\r\n            }\r\n        }\r\n\r\n        return (medicines, dosages, frequencies, durations, statuses, reminders, prescriptionIds);\r\n    }\r\n    function getDoctorPrescriptions(address _doctor) public view returns (\r\n    uint[] memory ids,\r\n    string[] memory medicines,\r\n    string[] memory dosages,\r\n    string[] memory frequencies,\r\n    uint[] memory durations,\r\n    uint8[] memory statuses,\r\n    string[][] memory allReminderTimes,\r\n    address[] memory patients,\r\n    bool[] memory isActiveFlags \r\n) {\r\n    uint[] memory indexes = doctorPrescriptionIndexes[_doctor];\r\n    uint activeCount = 0;\r\n\r\n    for (uint i = 0; i < indexes.length; i++) {\r\n        if (allPrescriptions[indexes[i]].isActive) {\r\n            activeCount++;\r\n        }\r\n    }\r\n\r\n    ids = new uint[](activeCount);\r\n    medicines = new string[](activeCount);\r\n    dosages = new string[](activeCount);\r\n    frequencies = new string[](activeCount);\r\n    durations = new uint[](activeCount);\r\n    statuses = new uint8[](activeCount);\r\n    allReminderTimes = new string[][](activeCount);\r\n    patients = new address[](activeCount);\r\n    isActiveFlags = new bool[](activeCount);\r\n\r\n    uint j = 0;\r\n    for (uint i = 0; i < indexes.length; i++) {\r\n        uint id = indexes[i];\r\n        Prescription storage p = allPrescriptions[id];\r\n        if (p.isActive) {\r\n            ids[j] = id;\r\n            medicines[j] = p.medicine;\r\n            dosages[j] = p.dosage;\r\n            frequencies[j] = p.frequency;\r\n            durations[j] = p.duration;\r\n            statuses[j] = uint8(p.status);\r\n            allReminderTimes[j] = p.reminderTimes;\r\n            patients[j] = p.patient;\r\n            isActiveFlags[j] = p.isActive;\r\n            j++;\r\n        }\r\n    }\r\n}\r\n\r\n    function getPrescriptionDetails(uint _prescriptionId) public view returns (\r\n        string memory,\r\n        string memory,\r\n        string memory,\r\n        uint,\r\n        PrescriptionStatus,\r\n        string[] memory,\r\n        address,\r\n        address\r\n    ) {\r\n        require(_prescriptionId < allPrescriptions.length, \"Invalid prescription ID\");\r\n        Prescription storage p = allPrescriptions[_prescriptionId];\r\n        require(bytes(p.medicine).length > 0, \"Prescription does not exist\");\r\n\r\n        return (\r\n            p.medicine,\r\n            p.dosage,\r\n            p.frequency,\r\n            p.duration,\r\n            p.status,\r\n            p.reminderTimes,\r\n            p.patient,\r\n            p.doctor\r\n        );\r\n    }\r\n\r\n    function getPatientPrescriptionCount(address _patient) public view returns (uint) {\r\n        return patientPrescriptionIndexes[_patient].length;\r\n    }\r\n\r\n    function getDoctorPrescriptionCount(address _doctor) public view returns (uint) {\r\n        return doctorPrescriptionIndexes[_doctor].length;\r\n    }\r\n}\r\n",
  "sourcePath": "C:\\Users\\USER\\Desktop\\remind_me_app\\testing\\contracts\\PrescriptionContract.sol",
  "compiler": {
    "name": "solc",
    "version": "0.8.21+commit.d9974bed.Emscripten.clang"
  },
  "schemaVersion": "3.4.16",
  "updatedAt": "2025-05-05T20:48:23.924Z",
  "networkType": "ethereum",
  "devdoc": {
    "kind": "dev",
    "methods": {},
    "version": 1
  },
  "userdoc": {
    "kind": "user",
    "methods": {},
    "version": 1
  }
}